:020000040800F2
:1000000058040020D10000080D0F0008CD0C000896
:1000100000000000000000000000000000000000E0
:10002000000000000000000000000000691000084F
:100030000000000000000000550F00086B100008D1
:10004000E3000008E3000008E3000008E300000804
:10005000E3000008E3000008E3000008E3000008F4
:10006000E3000008E3000008E3000008E3000008E4
:10007000E3000008E3000008E3000008E3000008D4
:10008000E3000008E300000800000000E3000008AF
:10009000E3000008E3000008E3000008E3000008B4
:1000A000E3000008E3000008E3000008E3000008A4
:1000B000E300000800000000E30000080348854654
:1000C00000F03CF8004800470513000858040020E1
:1000D0000448804704480047FEE7FEE7FEE7FEE7E6
:1000E000FEE7FEE709110008BD00000830B50B4629
:1000F000014600202022012409E00D46D5409D4202
:1001000005D31D469540491B254695404019154687
:10011000521E002DF1DC30BDD2B201E00270401C55
:10012000491EFBD270470022F6E710B513460A4677
:1001300004461946FFF7F0FF204610BD064C012586
:10014000064E05E0E36807CC2B430C3C984710347F
:10015000B442F7D3FFF7B6FFC4130008E413000856
:1001600010B500F00DF801224021044800F0DBF842
:100170007D20C00000F020F810BD000000080048FD
:1001800000B50B4887B04269012149040A43426126
:100190004069084005904020009001200190032014
:1001A00003906946034800F015F807B000BD000051
:1001B000001002400008004831B500F0BBF8009C78
:1001C0000546601C00D0641C00F0B4F8401BA0423F
:1001D000FAD338BDF8B500238DE001249C40A44635
:1001E00022407DD04C68022C01D0122C0CD1DC08AE
:1001F000A40027183C6A5D07ED0E0F26AE40B443FD
:100200000E69AE4026433E6205685E000324B4409A
:100210000F79A543BF07BF0FB7402F4307604D6855
:10022000012D05D0022D03D0112D01D0122D0ED19C
:100230008568CF68A543B7402F4387604768654608
:10024000AF430D79ED06ED0F9D403D434560C56818
:10025000A5438C68B4402C43C4604C68E40049D585
:10026000284CA56901263543A561A4699D08344041
:100270000094254CAD002F19BC689D072E0F0F254B
:10028000B540AC430925ED06A84201D100250FE099
:100290001E4DA84201D101250AE01D4DA84201D101
:1002A000022505E01B4DA84201D1032500E00525EC
:1002B000B5402543BD60184C25684E689543F6034C
:1002C00000D51543256065684E689543B60300D593
:1002D00015436560A5684E689543F60202D500E0B7
:1002E00008E01543A560E5684E689543B60200D561
:1002F0001543E5605B1C0A681446DC4000D06CE7DF
:10030000F8BD000000100240000001400004004859
:1003100000080048000C0048000401400069084043
:1003200000D001207047002A01D0816170478162AE
:10033000704700000148006870470000000000207E
:1003400070B5024640325378202B1CD11378012B14
:1003500019D00123137024245470046825689D4328
:100360002560046825681E03B54325600468256878
:100370000D4325600068016819430160202050701A
:100380000020107070BD022070BD70B50246403272
:100390005378202B1BD11378012B18D00124147013
:1003A0002423537003681D68A5431D6005682B68EE
:1003B0000F263602B3430902194329600068016819
:1003C00021430160202050700020107070BD022079
:1003D00070BD000070B5040006D025464035687831
:1003E0000026002802D005E0012070BD2E702046B6
:1003F00000F0D6F824206870206801684908490098
:1004000001600F216068090688432168086121683E
:100410008A680120C00382438A60E1680129A168DB
:1004200008D021229202114322689160E1680229DA
:1004300002D005E00143F7E701212268C9025160BB
:1004400021684A680F4B1A434A602168CA68824390
:10045000CA60616920690843A169090208432168EB
:10046000C860216AE0690843216808602068016863
:100470000122114301606664202068702663AE701B
:10048000002070BD00800002FFB5054604464035DF
:10049000687881B020287ED1287801287BD001207F
:1004A0002870FFF747FF0746012200901923D10368
:1004B000204600F069FC00283FD121206870102000
:1004C000A87000266664039860620498608566637D
:1004D000618D01204003FF2903D9FF22228500906E
:1004E00034E0618D2185009036E02046029900F0CD
:1004F00039FC36E000F093FC002803D0606C04283F
:1005000047D01AE0606A411C61620178206881620C
:10051000608D401E6085208D401E0004000C2085EB
:100520001FD1608D00281CD000970022802120461A
:100530000A9B00F029FC002802D0032005B0F0BD82
:10054000608DFF2805D9FF222285009601231B0616
:10055000CBE7608D20850096208D0123C2B25B061B
:10056000C3E7608D0A9900283A462046C2D100F0C0
:100570002FFC0028C2D121682020C86121684A6868
:10058000064B1A404A606870AE702E700020D5E7A6
:1005900001E00120D2E70220D0E7000000E800FEE1
:1005A00010B586B0044614216846FFF7BCFD124919
:1005B000206888421DD1114C6169012080040143EB
:1005C0006161616901400591C02000901220012104
:1005D0000190032002910491039069460848FFF7B7
:1005E000F9FDE169012040050143E161E169014054
:1005F000059106B010BD00000054004000100240FC
:100600000004004802480168491C0160704700006E
:100610000000002010B50648016810221143016057
:10062000002000F007F800F017F8002010BD0000CF
:100630000020024010B5044600F038F97D21C900C1
:10064000FFF754FD00F02AFB00222146501E00F067
:1006500017F8002010BD000008B508488169012284
:1006600011438161816911400091C26901040A430B
:10067000C261C0690840009008BD0000001002403F
:1006800010B500F045FC10BDF8B505460068394CC2
:10069000C00352D5E0690026C00007D4E1692004F8
:1006A0000143E161E169014001260091324801689E
:1006B000C90510D40168821511430160FFF73AFEA5
:1006C000074604E0FFF736FEC01B642824D82A48FA
:1006D0000068C005F6D5206A03273F02384020D0C5
:1006E0006968394081421CD0206A226AB8430121DE
:1006F00009040A432262226A8A4322622062C007F6
:100700000FD0FFF717FE009008E0FFF713FE0099E7
:10071000411A1A48814201D90320F8BD206A800796
:10072000F3D5206A6968B84308432062002E04D0DC
:10073000E169012000078143E1612878C00705D005
:10074000206BA96880088000084320632878800611
:1007500005D5206B10218843E96808432063288869
:10076000400505D5206B4021884329690843206353
:100770000020F8BD00100240007000408813000007
:10078000F8B5054644480E460068C007C00FB042A1
:100790000AD24148016849084900314301600068B4
:1007A000C007C00FB0425CD128783C4C800705D50B
:1007B0006068F0218843A968084360602878C00712
:1007C0003FD06868012813D02168022813D0890718
:1007D000002946DA61688908890001436160FFF7F2
:1007E000A9FD6968074601290DD0022917D024E028
:1007F00021688903ECE78901EAE7FFF79BFDC11B4C
:100800002748814217D860680007800F0128F4D17B
:1008100017E0FFF78FFDC11B214881420BD86068AC
:100820000007800F0228F4D10BE0FFF783FDC11B06
:100830001B48814201D90320F8BD60680007800F82
:10084000F3D115480168C907C90FB1420BD9016836
:1008500049084900314301600068C007C00FB04239
:1008600001D00120F8BD2878400706D5606807212F
:1008700009028843E9680843606000F01DF8616878
:10088000084A0906090F515CC84007490860002062
:10089000FFF7D0FE0020F8BD00200240001002400B
:1008A00088130000B4130008040000200148006809
:1008B000704700000400002010B512A30FCB88B0D1
:1008C0006C460FC413A30FCB0FC416494A680C2003
:1008D000134603401448042B0FD0082B0DD193026C
:1008E0001B0F6C46E45CC96A04AB0907090F595C2D
:1008F000D20304D5FFF7FAFB604308B010BD0B48E4
:100900006043FAE702030405060708090A0B0C0D09
:100910000E0F10100102030405060708090A0B0C4C
:100920000D0E0F100010024000127A0000093D0069
:10093000FEB504460078D04DC00747D06868000770
:10094000800F012807D068680007800F022809D1AE
:100950006868C00306D52868800337D5606800281A
:100960007ED033E0012062680004012A11D08100AA
:10097000002A01D0052A10D02A6882432A602868FC
:10098000884328606068002814D0FFF7D3FC06462F
:100990000CE0296801432960F4E72A680A432A60C9
:1009A000F7E7FFF7C7FC801B64286FD8286880032F
:1009B000F7D50BE0FFF7BEFC064604E0FFF7BAFCF4
:1009C000801B6428F1D828688003F7D4207801269A
:1009D000800700283BDA68680007800F07D0686846
:1009E0000007800F022809D16868C00306D4286870
:1009F000800715D5E068012832D111E0E0680028B1
:100A0000286815D030432860FFF794FC074604E0BF
:100A1000FFF790FCC01B0228C7D828688007F7D5CD
:100A20002868F82188432169C900084328600EE03E
:100A3000400840002860FFF77DFC074604E0FFF710
:100A400079FCC01B0228B0D828688007F7D420782A
:100A5000000724D5E0690028686A10D0304300E020
:100A600008E16862FFF766FC074604E0FFF762FCF6
:100A7000C01B022899D8686A8007F7D50FE04008A4
:100A800040006862FFF756FC074605E09DE0FFF76F
:100A900051FCC01B022888D8686A8007F7D42078E8
:100AA00004274007002860DA00200190E869C000B0
:100AB00008D4E969B8060143E961E9690140012008
:100AC000009101906D480168C90511D40168821533
:100AD00011430160FFF72EFC009005E0FFF72AFCB0
:100AE0000099401A642870D864480068C005F5D59C
:100AF000A06801280AD0002801D0052810D0286A53
:100B0000400840002862286AB84301E0286A304360
:100B10002862A068002812D0FFF70CFC00900AE0C1
:100B2000286A38432862F1E7FFF704FC0099411A6C
:100B30005348814249D8286A8007F5D50DE0FFF770
:100B4000F9FB009006E0FFF7F5FB0099411A4C48CD
:100B500081423AD8286A8007F5D40198002804D049
:100B6000E969012000078143E9612078C00635D595
:100B7000606901280CD0401D686B23D0384368633E
:100B8000686B400840006863FFF7D4FB064622E02C
:100B9000686B38436863686B30436863FFF7CAFB70
:100BA000064604E0FFF7C6FB801B02285BD8686B93
:100BB0008007F7D5686BF8218843A169C90008430D
:100BC00068630BE0B8436863F4E74CE0FFF7B2FBFF
:100BD000801B022847D8686B8007F7D4206A00285A
:100BE00046D069680907890F022943D001263606D5
:100BF0000228286805D0B0432860FFF79BFB044615
:100C000033E0B0432860FFF795FB074604E0FFF7A9
:100C100091FBC01B022826D828688001F7D4E86A17
:100C2000E16A000900010843E862616AA06A0843BA
:100C300069683D2212049143084368602868304384
:100C40002860FFF777FB044604E0FFF773FB001B07
:100C5000022808D828688001F7D509E0FFF76AFB69
:100C6000001B022801D90320FEBD28688001F5D4AD
:100C70000020FEBD0120FEBD0010024000700040BB
:100C800088130000042204490428086902D0904314
:100C9000086170471043FBE700E000E0094910B528
:100CA000401E884201D9012010BD074C606103211C
:100CB000081F00F02DF90020A0610720206100200E
:100CC00010BD0000FFFFFF0000E000E0FEE701684C
:100CD0008A69D243920701D400228A62006881693E
:100CE000C943C90703D0816901221143816170475B
:100CF000F7B5044600680E468069C043C0062CD490
:100D000020272546403520688069C04380060FD5DE
:100D1000701CF8D0002E05D0FFF70CFB0299401A8A
:100D2000B042F0D96F700020A87028700320FEBD7B
:100D300021681020C8612068C7612046FFF7C7FFFF
:100D400020684168064A11404160042060646F7069
:100D50000020A87028700120FEBD0020FEBD00000C
:100D600000E800FE70B50568049C68688905890D77
:100D70001204044E1143194330402143014369607A
:100D800070BD0000009800FCF8B51C4617460E46E2
:100D9000054611E0601C0FD0002C05D0FFF7CAFA01
:100DA0000699401AA04207D92020403568700020DB
:100DB000A87028700320F8BD2868816930468843F0
:100DC00004D00020B842E5D00020F8BD0120F9E7AA
:100DD00070B516460D4604461AE0324629462046AE
:100DE000FFF786FF002801D0012070BD002D04D040
:100DF000FFF7A0FA801BA8420AD9616C20200143AA
:100E00006164403460700020A0702070032070BDC9
:100E100020688069C0438006DFD4002070BD70B5B3
:100E200016460D4604461CE0324629462046FFF78A
:100E30005FFF002801D0012070BD681C11D0002D7B
:100E400004D0FFF777FA801BA8420AD9616C2020F2
:100E500001436164403460700020A0702070032062
:100E600070BD20688069C0438007DDD4002070BD5C
:100E700030B587B014216846FFF755F9114842692B
:100E80000121C9040A43426142690A40059242694C
:100E900049100A4342614069032408400A4D240274
:100EA0000590002221462846FFF73DFA0121032044
:100EB000019102910390009469462846FFF78AF950
:100EC00007B030BD001002400008004810B50D48C2
:100ED0000B4901600C494160002181600161416161
:100EE00081610122C161C2600162FFF773FA0021D2
:100EF0000448FFF725FA00210248FFF746FA10BD23
:100F000000540040080000200E0900207047000037
:100F10008307FF22DB0E9A408907090E99400028BB
:100F20000BDA0007000F0838830808489B001818E0
:100F3000C36993430B43C3617047830804489B0014
:100F40001B181868904308431860704700ED00E0D4
:100F500000E400E070470000F8B50025144E2C4670
:100F6000012740213046FFF7D9F90028F9D0502059
:100F700000F007F940213046FFF7D0F901280AD0E8
:100F80000720011B384688408543641CE4B2082CC6
:100F9000E7D32846F8BD40213046FFF7BFF90128C6
:100FA000F9D00720011B38468840C0B20543ECE762
:100FB0000008004830B585B00446FFF7E1F8294D38
:100FC000002240212846FFF7AEF91420FFF7F4F87D
:100FD000012240212846FFF7A6F9502000F0D1F861
:100FE000402000900020019003200390694628468D
:100FF000FFF7F0F840212846FFF790F900282ED19E
:1010000040212846FFF78AF90028F9D040212846D8
:10101000FFF784F90128F9D0FFF79EFFA070FFF7D2
:101020009BFFE070FFF798FF2070FFF795FF60705F
:10103000FFF792FF2071FFF7A3F801224021284615
:10104000FFF771F9A078E178627840182178891863
:1010500040182179884202D1012005B030BD00201E
:10106000FBE7000000080048704710B5FFF7CAFA18
:1010700010BD000010B596B030216846FFF753F858
:1010800000240C940D940E94142110A80F94FFF7D3
:101090004AF81C48C26901040A43C261C069099444
:1010A000084015900121039102200090089005202E
:1010B000C00410210A9004910B946846FFF738FC95
:1010C00007200C900D940E9400210F940CA8FFF7AC
:1010D00057FB20201090139410A8FFF7D5FAFFF7C4
:1010E000E5FB7D21C900FFF701F8FFF7D7FD0420DC
:1010F000FFF7C8FD00221146501EFFF7C1FA16B0D7
:1011000010BD000000100240134801680122114385
:1011100001604168114A114041600168104A114064
:1011200001600168012292049143016041683F22FD
:10113000120491434160C16A09090901C162016B4E
:10114000FF22543291430163416B490849004163D6
:101150000021816070470000001002400CB8FFF8C9
:10116000FFFFF6FE02E008C8121F08C1002AFAD1EC
:1011700070477047002001E001C1121F002AFBD117
:1011800070473EE000BF00BF00BF00BF00BF00BF10
:1011900000BF00BF00BF00BF00BF00BF00BF00BF57
:1011A00000BF00BF00BF00BF00BF00BF00BF00BF47
:1011B00000BF00BF00BF00BF00BF00BF00BF00BF37
:1011C00000BF00BF00BF00BF00BF00BF00BF00BF27
:1011D00000BF00BF00BF00BF00BF00BF00BF00BF17
:1011E00000BF00BF00BF00BF00BF00BF00BF00BF07
:1011F00000BF00BF00BF00BF00BF00BF00BF00BFF7
:1012000000BF0146401EC0B20029BBD1704710B5D7
:10121000012806D0802040310143C8B200F030F8E8
:1012200010BD8031F9E710B5332000F029F83220E5
:1012300000F026F83220FEF7BFFF282000F020F84B
:101240003220FEF7B9FF012000F01AF83220FEF735
:10125000B3FF062000F014F83220FEF7ADFF0C209B
:1012600000F00EF83220FEF7A7FF022000F008F889
:101270003220FEF7A1FF802000F002F810BD000030
:101280001CB5010909010C220B4613436C4623715E
:10129000082319430001617101461143A1711843EC
:1012A000E07164200090042301AA4E210148FFF759
:1012B000EBF81CBD080000201CB5010909010D2236
:1012C0000B4613436C4623710923194300016171D6
:1012D00001461143A1711843E0716420009004237A
:1012E00001AA4E210148FFF7CFF81CBD08000020DD
:1012F00010B5044602E0641CFFF7DEFF20780028EA
:10130000F9D110BD1CB5FFF785F90126204C7602F6
:10131000002231462046FFF706F8FFF7ABFEFFF745
:10132000A7FDFFF7D3FD7D25ED002846FEF744FF1E
:10133000FEF716FFFFF777FF04210120FFF767FF95
:1013400014A0FFF7D5FF32201EE06846FFF732FEFB
:1013500001280CD0012231462046FEF7E4FF02218D
:101360000846FFF754FF0EA0FFF7C2FFEDE7032189
:101370000220FFF74CFF0DA0FFF7BAFF0122314614
:101380002046FEF7D0FF2846FEF716FFDDE70000F7
:10139000000800484E4849455420444F3A20000078
:1013A0004572726F722E2E2E2E00000068757965C0
:1013B0006E000000000000000000000001020304B5
:1013C00006070809E41300080000002008000000D8
:1013D00064110008EC13000808000020500400000D
:0C13E000741100080000000000127A00E8
:04000005080000BD32
:00000001FF
